:020000040800F2
:10000000880B002029020008FB0B0008A30B000846
:10001000F70B00088503000819160008000000000F
:10002000000000000000000000000000E10D0008DA
:10003000810A000800000000750C0008D10E0008BD
:10004000430200084302000843020008430200087C
:10005000430200084302000843020008430200086C
:10006000430200084302000843020008430200085C
:10007000430200087105000843020008430200081B
:10008000430200084302000843020008430200083C
:10009000430200084302000843020008430200082C
:1000A000430200084302000843020008430200081C
:1000B000C50F00084302000843020008430200087D
:1000C00043020008430200084302000843020008FC
:1000D00043020008430200084302000843020008EC
:1000E00043020008430200084302000843020008DC
:1000F00043020008430200084302000843020008CC
:1001000043020008430200084302000843020008BB
:1001100043020008430200084302000843020008AB
:10012000430200084302000843020008430200089B
:10013000430200084302000843020008430200088B
:10014000430200084302000843020008430200087B
:10015000430200084302000843020008430200086B
:10016000430200084302000843020008430200085B
:10017000430200084302000843020008430200084B
:10018000430200084302000800F002F800F03CF8C7
:100190000AA090E8000C82448344AAF10107DA45E2
:1001A00001D100F031F8AFF2090EBAE80F0013F0F8
:1001B000010F18BFFB1A43F0010318471C3C000055
:1001C0003C3C0000103A24BF78C878C1FAD85207E6
:1001D00024BF30C830C144BF04680C6070470000C1
:1001E0000023002400250026103A28BF78C1FBD840
:1001F000520728BF30C148BF0B6070471FB503F0DE
:1002000096FC1FBD10B510BD00F044F81146FFF775
:10021000F5FF02F0E9FD00F062F803B4FFF7F2FF2A
:1002200003BC00F065F80000094880470948004712
:10023000FEE7FEE7FEE7FEE7FEE7FEE7FEE7FEE796
:10024000FEE7FEE704480549054A064B70470000F3
:10025000ED0E00088901000888050020880B0020A9
:10026000880700208807002070477047704710B546
:1002700000F008F8006810BD10B5044600F002F860
:10028000046010BD004870472405002000487047F6
:10029000240500207546FFF7F9FFAE4605006946C4
:1002A000534620F00700854618B020B5FFF7CAFF77
:1002B000BDE820404FF000064FF000074FF0000867
:1002C0004FF0000B21F00701AC46ACE8C009ACE8E8
:1002D000C009ACE8C009ACE8C0098D46704710B54C
:1002E0000446AFF300802046BDE81040FFF795BFFD
:1002F00001491820ABBEFEE726000200704700004F
:100300002DE9F0412DED0C8B06460D46002700240B
:100310002DE0691E081B03F03CF841EC1D0BB0EE0C
:100320004D1AF0EE6D1A9FED150B01F091F9B0EE3C
:1003300040BAF0EE60BA315DA1F1300003F029F867
:1003400041EC1C0B53EC1B2B03F08AF841EC190B0E
:10035000384603F035F841EC1A0B53EC192B02F038
:10036000A7FD41EC180B02F0E7FF87B2641CAC421A
:10037000CFDB3846BDEC0C8BBDE8F08100000000FF
:100380000000244000BFFEE71FB52420009080201D
:1003900001904FF41060029000200390694600F035
:1003A000BDF80121002000F083F840F2FF31002069
:1003B00000F0CEF81FBD000030B58FB005460C46EA
:1003C0001A48006840F026001849086001214805D5
:1003D00000F052FC164800F03BFA4FF060600090CD
:1003E00002951248083001904020039004940020A8
:1003F00005904FF4806006904000079080000890C0
:100400004011099040020A9000200B9001200C90AE
:1004100000200D900E906946054800F005FB012173
:10042000002000F045F80FB030BD0000007400401F
:100430008860024030B58FB005460C461A48006807
:1004400040F4B010184908600121480500F014FC80
:10045000164800F0FDF94FF06060009002951248D8
:1004600014300190402003900494002005904FF434
:10047000806006904000079080000890401109902D
:1004800040020A9000200B9001200C9000200D905B
:100490000E906946054800F0C7FA0121102000F0CF
:1004A00007F80FB030BD000000740040A0600240AB
:1004B00039B1084A1268012383401A43054B1A6078
:1004C00006E0044A1268012383409A43014B1A60F4
:1004D000704700000074004041B1094A12684FF4AF
:1004E000805383401A43064B1A6007E0044A12689F
:1004F0004FF4805383409A43014B1A6070470000C9
:100500000074004010B50121480700F0D5FB002120
:100510004FF0005000F0D0FB10BD000030B50022BD
:1005200000230A4C226840F6FE748440A243D1E9BD
:1005300000452C438D682C43CD6844EA050303FA3B
:1005400000F42243014C226030BD000000740040E2
:1005500008B500220092054A009200F11402009BA7
:100560001A440092009A116008BD00000074004017
:1005700010B52DED028B8949894800F043F901211E
:10058000874800F059F94FF40041864800F005FB18
:1005900085488078313800287DD100BF05E0824A47
:1005A000C11C515C814A1154401C0428F7DB042112
:1005B0007E48FFF7A5FE7E490880002004E07A49C6
:1005C000095C7C4A1154401C0228F8DB022179485E
:1005D000FFF796FE00EE100AB8EEC00A764880EDEE
:1005E000000A7148C079303830B1012831D0022872
:1005F0005ED003287ED18AE064216D48008800F037
:10060000A9FC6D4890ED000AF2EE040A80EE201A73
:10061000B0EE418AB0EE480A02F0F6FA642167486B
:10062000FFF7CAFE644890ED000AF2EE040A80EE7D
:10063000201AB0EE412AB0EE420A02F0BBFB642160
:100640005B48008800F0D8FC02215D48FFF7F2FE0D
:100650007EE0594890ED000AF2EE040A80EE201A7E
:10066000B0EE418AB0EE480A02F06EFB64215548B4
:10067000FFF7A2FE64214E48008800F06BFC4E4854
:1006800090ED000AF2EE040A80EE201AB0EE412A44
:10069000B0EE420A00E074E002F08CFB64214448B2
:1006A000008800F0A9FC02214548FFF7C3FE4FE097
:1006B00064213F48008800F04DFC3F4890ED000A5F
:1006C000F2EE040A80EE201AB0EE418AB0EE480A3B
:1006D00002F002FB64213C48FFF76EFE364890EDC5
:1006E000000AF2EE040A80EE201AB0EE412AB0EEC3
:1006F000420A00E02BE002F05DFB64212C480088F8
:1007000000F07AFC02212E48FFF794FE20E04FF41F
:10071000FA612748008800F01DFCFFF735FE2648E7
:1007200090ED000AF2EE040A80EE201AB0EE412AA3
:10073000B0EE420A02F03EFB40F2FE711C48008817
:1007400000F05AFC02211E48FFF774FE00E000BFD3
:1007500000BF01210020FFF7BFFE012110484830F3
:1007600000F06AF801211020FFF7B6FE01210C48C5
:10077000603000F061F801221146900700F051FD51
:1007800008E0FFF7BFFE4FF0804000F071FC0F481B
:1007900000F06EFCBDEC028B10BD0000008020104C
:1007A00040600240000C02400800002014000020BD
:1007B0001A000020180000201C0000203800002033
:1007C0001000002058030020C80100200014004041
:1007D0000246094B9A4201D2084801E00648103807
:1007E00001F000531BB1064B0B40C36002E0044B09
:1007F0000B408360704700001064024000600240BC
:100800007D0F7D0F0246094B9A4201D2084801E054
:100810000648103801F000531BB1064B0B40C36073
:1008200002E0044B0B4083607047000010640240FC
:10083000006002407D0F7D0F21B1026842F001028D
:10084000026003E0026822F00102026070470000CB
:10085000016821F0010101600021016041608160B7
:10086000C1600161212141614A49884204D13D2191
:10087000484A103A91608CE046491831884205D1C7
:100880004FF47461434A103A916082E0414930313B
:10089000884205D14FF474113E4A103A916078E0D5
:1008A0003C494831884205D14FF07461394A103AC9
:1008B00091606EE037496031884204D13649354A4B
:1008C000103AD16065E033497831884204D1334928
:1008D000304A103AD1605CE02E499031884204D110
:1008E0002F492C4A103AD16053E02A49A831884256
:1008F00005D14FF03D51274A103AD16049E02949CE
:10090000884204D13D21274A083A116041E0254937
:100910001831884205D14FF47461224A083A1160B7
:1009200037E020493031884205D14FF474111D4A17
:10093000083A11602DE01B494831884205D14FF03B
:100940007461184A083A116023E016496031884200
:1009500004D11149134A121F11601AE0114978316C
:10096000884204D10D490F4A121F116011E00D4950
:100970009031884204D10A490A4A121F116008E0E6
:100980000849A831884204D14FF03D51054A121F51
:1009900011607047106002403D000020400F0020B1
:1009A00000003D201064024030B503460A46002096
:1009B00000240B4DAB4201D20A4901E0084910392D
:1009C00002F000550DB14C6800E00C68064D2C405B
:1009D00004EA02050DB1012000E0002030BD000056
:1009E00010640240006002407D0F7D0F10B501F0E1
:1009F00080034BB122B1436943F08003436103E0BC
:100A0000436923F08003436180290BD02AB1036836
:100A100001F01E042343036004E0036801F01E0498
:100A2000A343036010BD000010B500220268134B01
:100A30001A40CC680B6823434C6923438C692343D9
:100A4000CC6923430C6A23434C6A23438C6A2343B7
:100A50004C6B23438C6B23431A430260426922F0A0
:100A60000702D1E90B3423431A4342610B69436007
:100A70004B6883608B68C36010BD00003F801CF032
:100A80007047000070B504460D460B488460056150
:100A900001460A48FFF7C8FF09490848FFF798FED2
:100AA00001210648FFF7C8FE00BF05490348FFF7CC
:100AB0007BFF0028F9D070BDE80400207060024080
:100AC00020000020F0B50A4600210023002400BFCA
:100AD0003DE0012505FA01F3156805EA03049C428F
:100AE00034D105684F000326BE40B5430560157933
:100AF0004E00B5400668354305601579012D02D0DA
:100B00001579022D16D185684F000326BE40B543E6
:100B1000856055794E00B5408668354385604568E7
:100B200001268E40B5434560456896798E40B6B241
:100B300035434560C5684F000326BE40B543C560D8
:100B4000D5794E00B540C6683543C560491C1029AB
:100B5000BFD3F0BDF0B5002300244D07ED0E02FA1F
:100B600005F3CE1000F1200555F826504E07F70E7C
:100B70000F26BE40B543CF1000F1200646F827509F
:100B8000CE1000F1200555F8265045EA0304CE109A
:100B900000F1200545F82640F0BD42694A40426117
:100BA000704700BFFEE710B5024610460A2390FBCF
:100BB000F3F403FB14033033CB700A2390FBF3F3FD
:100BC00098B20A2390FBF3F403FB140330338B70C9
:100BD0000A2390FBF3F398B20A2390FBF3F403FB90
:100BE000140330334B700A2390FBF3F398B200F1F7
:100BF00030030B7010BD00BFFEE7704770B50021D9
:100C000000230F22C4781CB3174C246804F4E0645A
:100C1000C4F5E064C4F30721C1F10404E3B20A415E
:100C200044789C40E1B28478144021430C07210EA3
:100C30000E4C05786155047804F01F050124AC4082
:100C400005786D11AD0005F1E025C5F8004109E01A
:100C5000047804F01F050124AC40054D0678761198
:100C600045F8264070BD00000CED00E000E400E017
:100C700080E100E07047000029B1064A1268024393
:100C8000044B1A6004E0034A12688243014B1A6065
:100C9000704700003038024029B1064A126802430A
:100CA000044B1A6004E0034A12688243014B1A6045
:100CB000704700004038024029B1064A12680243DA
:100CC000044B1A6004E0034A12688243014B1A6025
:100CD000704700002038024029B1064A12680243DA
:100CE000044B1A6004E0034A12688243014B1A6005
:100CF0007047000024380240F0B500210022002493
:100D0000022500260223324F3F6807F00C0121B173
:100D1000042905D0082937D105E02E4F076036E0B9
:100D20002D4F076033E02A4F3F1F3F68C7F38056BF
:100D3000274F3F1F3F6807F03F036EB1264FB7FBB9
:100D4000F3F7DFF88CC0ACF1040CDCF800C0CCF396
:100D5000881C07FB0CF40CE01E4FB7FBF3F7DFF821
:100D600070C0ACF1040CDCF800C0CCF3881C07FBAD
:100D70000CF4174F3F1F3F68C7F301477F1C7D00EE
:100D8000B4FBF5F7076002E0124F076000BF00BF39
:100D90000F4F3F6807F0F0010909104F7A5C0768B0
:100DA000D74047600A4F3F6807F4E051890A0B4F6C
:100DB0007A5C4768D7408760054F3F6807F4604119
:100DC000490B064F7A5C4768D740C760F0BD00000A
:100DD000083802400024F40000127A0028000020A5
:100DE000704700000CB50020019000903448006866
:100DF00040F480303249086000BF3148006800F498
:100E0000003000900198401C0190009818B901989A
:100E1000B0F5A04FF1D12A48006800F4003010B1BD
:100E20000120009001E0002000900098012846D1A8
:100E300023484030006840F080502149403108602C
:100E40002048006840F440401E4908601C480830B3
:100E500000681B49083108600846006840F40040FB
:100E600008600846006840F4A05008601648091F52
:100E70000860081F006840F08070091F086000BF0C
:100E80000F48006800F000700028F9D040F20570AB
:100E90000E4908600A480830006820F0030008493D
:100EA000083108600846006840F00200086000BF92
:100EB00003480830006800F00C000828F8D10CBD89
:100EC000003802400070004008544007003C0240D7
:100ED00001200449086004480068401C0249086079
:100EE00070470000040000200000002010B51548E5
:100EF000006840F47000134908601348006840F02F
:100F000001001149086000200F49083108600E48AF
:100F100000680E4908400C4908600D48091D08602A
:100F2000081F006820F48020091F0860002006497F
:100F30000C310860FFF756FF4FF00060014980391F
:100F4000086010BD88ED00E000380240FFFFF6FEAB
:100F5000103000247FB505460C4601210846FFF7F6
:100F60009BFE01A800F0B2F95320ADF80400002068
:100F7000ADF8060005FB04F0114991FBF0F0401EAE
:100F800002900020ADF80C0001A94FF0804000F065
:100F90005BF92021480600F04DF90121880700F097
:100FA0005AF81C208DF8000000208DF801008DF803
:100FB000020001208DF803006846FFF71FFE7FBD89
:100FC00040420F0038B5002000900121880700F052
:100FD00017F950B10748006884B269462046FFF708
:100FE000E2FD04216846FFF74DFD0121880700F06E
:100FF0002FF838BD2C7400403EB505460C46012143
:101000002020FFF749FE684600F060F95320ADF854
:1010100000000020ADF8020005FB04F00A4991FB36
:10102000F0F0401E01900020ADF808006946074826
:1010300000F00AF92021054800F0FCF801210348DE
:1010400000F009F83EBD000040420F0000140040CF
:10105000CA430282704721B1028842F00102028035
:1010600004E002884FF6FE731A40028070470000C9
:1010700010B504465548844208D101210846FFF7BF
:101080002BFE00210120FFF727FE9DE0B4F1804FE9
:1010900008D101210846FFF70FFE00210120FFF7CC
:1010A0000BFE91E04A48844208D101210220FFF75B
:1010B00003FE00210220FFF7FFFD85E04548844242
:1010C00008D101210420FFF7F7FD00210420FFF7DC
:1010D000F3FD79E04048844208D101210820FFF760
:1010E000EBFD00210820FFF7E7FD6DE03B4884425F
:1010F00008D101211020FFF7DFFD00211020FFF7AC
:10110000DBFD61E03648844208D101212020FFF751
:10111000D3FD00212020FFF7CFFD55E03148844268
:1011200008D101210220FFF7D7FD00210220FFF79F
:10113000D3FD49E02C48844209D101210804FFF77E
:10114000CBFD00214FF48030FFF7C6FD3CE027487F
:10115000844209D101214804FFF7BEFD00214FF46C
:101160000030FFF7B9FD2FE02148844209D1012169
:101170008804FFF7B1FD00214FF48020FFF7ACFD9C
:1011800022E01C48844208D101214020FFF794FD51
:1011900000214020FFF790FD16E01748844208D157
:1011A00001218020FFF788FD00218020FFF784FDCA
:1011B0000AE01248844207D101218015FFF77CFD27
:1011C0000021A015FFF778FD10BD000000000140D0
:1011D0000004004000080040000C004000100040E7
:1011E0000014004000040140004001400044014060
:1011F0000048014000180040001C00400020004052
:1012000030B50246002000230024158A05EA0103B8
:10121000958905EA010413B10CB1012000E000201A
:1012200030BD1AB183890B43838102E083898B43EC
:101230008381704782884FF68F731A40828082883C
:101240000A4382807047000000220288184B9842AF
:101250000ED0184B98420BD0B0F1804F08D0164BEF
:10126000984205D0154B984202D0154B984204D1B4
:101270004FF68F731A404B881A43124B984207D08F
:10128000114B984204D04FF6FF431A400B891A4382
:1012900002804B68C3620B880385054B984202D0DD
:1012A000044B984201D18B7A0386012383827047D5
:1012B000000001400004014000040040000800401C
:1012C000000C004000100040001400404FF0FF31BF
:1012D00041600021018001814180817270470000DE
:1012E0001CB501210820FFF7C7FC4FF470400090A7
:1012F00001208DF8040000208DF80700694602489F
:10130000FFF7E0FB1CBD0000000C024000B587B0F9
:1013100001210846FFF7B0FC0121C804FFF7BCFC1F
:1013200001214805FFF7A8FC082200212D48FFF7FE
:1013300011FC082201212B48FFF70CFC012005902D
:1013400002208DF8180000208DF81A0001208DF879
:101350001B0002208DF8190005A92248FFF7B2FBF7
:10136000022005908DF8180005A91E48FFF7AAFB7A
:101370004FF4E13001900020ADF80800ADF80A000C
:10138000ADF80C00ADF810000C20ADF80E0001A96E
:10139000154800F0D7F80121134800F0BDF80122EC
:1013A0008021114800F0C4F84FF000600F49086038
:1013B0000D48001D48604020C860002048614FF47F
:1013C000806088610020C861086248624FF4003084
:1013D00088620020C8620120086300204863886397
:1013E00007B000BD00000240004C0040E8040020AF
:1013F00000B597B001210846FFF73EFC0121C80463
:10140000FFF74AFC01214805FFF736FC08220021BE
:101410003D48FFF79FFB082201213B48FFF79AFB5D
:101420000120159002208DF8580000208DF85A00F8
:1014300001208DF85B0002208DF8590015A9324873
:10144000FFF740FB022015908DF8580015A92E4893
:10145000FFF738FB4FF4E13011900020ADF8480061
:10146000ADF84A00ADF84C00ADF850000C20ADF8D6
:101470004E0011A9254800F065F80121234800F02D
:101480004BF801224021214800F052F84FF0006053
:1014900002901E48001D03901D48049000200590F6
:1014A00008200690002007904FF4806008900020EC
:1014B00009900A900B904FF400300C9000200D9092
:1014C00001200E9000200F90109002A91148FFF704
:1014D000ABFA01210F48FFF7AFF90D208DF804009A
:1014E00000208DF805000F208DF8060001208DF8F2
:1014F000070001A8FFF782FB012210210548FFF732
:1015000075FA17B000BD000000000240004C00401A
:10151000080000204060024021B1828942F400525C
:10152000828104E082894DF6FF731A408281704700
:101530001AB1838A0B43838202E0838A8B438382BE
:10154000704700002DE9FF4705460E460024A146DE
:1015500000BFA046B08900B100BF2C8A24F44054DB
:10156000F08804432C82AC8941F20C608443B0883B
:1015700031890843718908430443AC81AC8A24F45F
:101580004074B0890443AC826846FFF7B5FB20483D
:10159000854202D01F48854202D1DDF80C9001E05F
:1015A000DDF80890A88900F4004040B109EBC900BB
:1015B00000EB091031684900B0FBF1F707E009EBD7
:1015C000C90000EB091031688900B0FBF1F7642015
:1015D000B7FBF0F004012009642101FB1078A88911
:1015E00000F4004040B1322000EBC800B0FBF1F045
:1015F00000F00700044308E0322000EB08106421EB
:10160000B0FBF1F000F00F0004432C81BDE8FF8730
:10161000001001400014014000BFFEE703B4019830
:101620004100009850EAC12018BF04204A0D18BF9D
:1016300040F0010040F2FF72B2EB515F08BF40F092
:101640000200012808BF052002B07047000000001A
:101650002DE9F04D2DED040B2DED0E8B96B0DDE94F
:101660002550279CDDF890A025F0004624F0004886
:10167000BAF1000F14BF0121002101EB4502FC4922
:1016800053184A1093422AD3002814BF0123002381
:1016900003EB44030B44F7498B4220D358EA000183
:1016A0009FEDF59B76D0DFF8D8B35D4503D1BAF155
:1016B000000F05D188E0BAF1000F08BF002100D06B
:1016C000012101EB450111F5001F08D8002814BFC6
:1016D0000121002101EB440111F5001F0BD99DED03
:1016E000261B9DED240B16B0BDEC0E8B04B0BDE89F
:1016F000F04D01F043BA0027002DBCBFE1498845F9
:1017000021DAE1498845A8BF02271CDAC3451ADC63
:10171000DE4901EB2851142908DDC1F1340220FA19
:1017200002F101FA02F282420DD108E058B9C1F18A
:10173000140228FA02F101FA02F2424503D101F043
:101740000101C1F1020756EA0A0124D1002C22DA74
:10175000002D18BF022F01D0012F0AD00220FEF762
:101760008BFD16B0BDEC0E8B04B0BDE8F04D01F062
:10177000E3B90220FEF780FD01F0DEF951EC100B19
:1017800001F089FB41EC100B16B0BDEC0E8B04B0E0
:10179000BDE8F08D18E09FEDBEAB9FEDBF8B00283C
:1017A00071D1B848804522D105F1804010F58010F4
:1017B00008BFBAF1000F07D0B3450ADC002CA8BF60
:1017C0009DED260BE0DA0DE0B0EE490AF0EE690A75
:1017D000DAE7002C06DA9DED260B51EC100B01F038
:1017E0005AFB6FE0AE48784490ED000BCCE7D8454B
:1017F0004DD1002C48DA2EB186423AD1BAF1000F11
:1018000042D126E0BAF1000F13D00220FEF734FDDA
:1018100001F0CEF98DED020B9DED240B8DED000B4B
:1018200010EE900A039961F31E0003909DED020BE8
:10183000AAE78DED02AB9DED240B1AEE901A10EE87
:10184000900A8DED000B61F31E0003909DED020BDD
:101850009AE78DED028B9DED240B18EE901A10EE99
:10186000900A8DED000B61F31E0003909DED020BBD
:101870008AE709DA9DED240B51EC190B53EC102B80
:1018800001F0D2FB1EE020E09DED240B7CE78642B8
:101890001BDAB4F1804F0DD0A4F10050B0F1FF502D
:1018A00013D1002D11DB9DED240B51EC100B01F039
:1018B000BBFA07E09DED240B53EC102B51EC100B01
:1018C00000F0C2BC41EC100B5EE79DED240B51EC27
:1018D000100B01F08DF9BAF1000FCDE90E0142D1E4
:1018E0009FED710B46B3A6F1E040B0F17F600CD0E4
:1018F0005E4538D1002D00DAA7B3022F0CBF0120BE
:101900004FF0FF3001F045FDDCE7002D01DD002C3C
:101910000DDA002D01DD002C1FDB002D16DA002C66
:1019200014DB012F08BF9FED620B3FF42DAFB0EE2B
:101930004A0AF0EE6A0A27E7022F18BF002D0CD0E2
:10194000012F0AD1002DFFF61FAF06E0002DB8BF12
:10195000002C08DA012F3FF417AFB0EE480AF0EE82
:10196000680A11E71BE0012000EBE57050EA07016F
:1019700015D0791EB0EE498AF0EE698A084308BF97
:101980009FED4D8B4E480025804570DD4D494E48FA
:10199000884514DDB0420DDB002C19DB2FE001205F
:1019A000FEF76AFC16B0BDEC0E8B04B0BDE8F04D3E
:1019B00001F0EEB8B34502DC002C09DC1FE08642E2
:1019C00002DA002C1BDA03E05E452BDD002C16DD6D
:1019D0000220FEF751FC01F0EBF88DED020B53EC09
:1019E0001A2B51EC180B01F03BFDCDE900010399D6
:1019F000019861F31E0003909DED020BC4E60220E6
:101A0000FEF73AFC01F0E4F810EE901A18EE900A96
:101A10008DED020B8DED008B61F31E0003909DEDAB
:101A2000020BB1E69DED0E0B53EC192B51EC100B94
:101A300001F022FF9FED260BCDE9080153EC102B9E
:101A40009DED080B51EC100B01F00AFD9FED221BE0
:101A500053EC112B01F038FE9DED081B53EC112BBC
:101A600001F0FEFC9FED1E1B53EC112B3CE08CE0C3
:101A7000FFFF1F00FFFF0F00000000000000F03F0D
:101A80000000F03F0000F07F0000404301FCFFFF3A
:101A9000000000000000F07F0000000000000000D7
:101AA000F62400000000000000000000000000809C
:101AB000000000000000F0FF000000000000F0BF88
:101AC0000000E0410000F043FFFFEF3F0000000096
:101AD000000000000000D03F555555555555D53FE5
:101AE000000000000000E03F01F0EEFD9DED080B5E
:101AF00041EC1A0B53EC102B51EC100B01F0B0FC25
:101B000053EC1A2B01F0ACFC41EC1A0B9FEDFE0BD1
:101B100053EC102B9DED080B51EC100B01F0A0FCC9
:101B200041EC1B0B9FEDFA0B51EC1A0B53EC102BF5
:101B300001F096FC41EC1A0B9FEDF70B53EC102BC8
:101B40009DED080B51EC100B01F08AFC53EC1A2BA5
:101B500001F092FE41EC1A0B51EC1B0B53EC1A2BCB
:101B600001F0A6F90690CDE906519DED060B53EC68
:101B70001B2B51EC100B01F07FFE53EC1A2B01F0E4
:101B8000A3FD41EC100B00F0A1B90020B6F5801FB9
:101B90000EDA9FEDE30B53EC102B9DED0E0B51EC89
:101BA000100B01F05DFCCDE90E016FF034000E4624
:101BB00000EB2650A0F2FF37C6F31300DA4940F0DD
:101BC0007F6646F040568842D8BF002408DDD749DA
:101BD0008142C8BF012403DC0024A6F580167F1CC7
:101BE000D348784400EBC4000F9690ED00CB9DEDF8
:101BF0000E0B53EC1C2B51EC100B01F03DFE9DED38
:101C00000E0B41EC1B0B53EC1C2B51EC100B01F099
:101C10004FF941EC100B51EC190B53EC102B01F068
:101C200003FA41EC1D0B51EC1B0B53EC1D2B01F087
:101C300017FC41EC1A0BBF488DED10AB78441095A2
:101C400090ED000B4FF0005040EA660000EB84403E
:101C50008DED080B00F5002009909DED080B53EC6D
:101C60001C2B51EC100B01F007FE9DED0E1B53ECED
:101C7000112B01F029FD41EC100B53EC102B9DEDC5
:101C8000100B51EC100B01F0EBFB9DED080B41EC40
:101C90001C0B53EC102B9DED100B51EC100B01F0B5
:101CA000DFFB53EC1B2B01F00FFD53EC1C2B01F061
:101CB000E3FD53EC1D2B01F0D3FB41EC1C0B53EC6B
:101CC0001A2B51EC1A0B01F0CBFB41EC1B0B9A4881
:101CD0000621B0EE4B0AF0EE6B0A784400F018FED5
:101CE000B0EE401AF0EE601AB0EE41DAF0EE61DAD2
:101CF00053EC1B2B51EC1B0B01F0B2FB53EC1D2BD7
:101D000001F0AEFB9DED100B41EC1B0B53EC1A2BBD
:101D100051EC100B01F0CCF853EC1C2B01F0A0FBA4
:101D200053EC1B2B01F0C4F89DED100B41EC1B0B89
:101D300053EC102B51EC100B01F092FB41EC1D0BFE
:101D40009FED7FEB53EC1E2B01F0B2F853EC1B2BF5
:101D500001F0AEF80890CDE908519DED080B53EC69
:101D60001E2B51EC100B01F087FD53EC1D2B01F0E5
:101D700083FD53EC1B2B01F0A7FC9DED080B41EC00
:101D80001D0B53EC102B9DED100B51EC100B01F0C3
:101D900067FB41EC1B0B53EC1A2B51EC1D0B01F0B4
:101DA0005FFB9DED080B41EC1A0B53EC102B51EC33
:101DB0001C0B01F055FB53EC1A2B01F079F841ECA8
:101DC0001A0B51EC1B0B53EC1A2B01F071F80C9011
:101DD000CDE90C519DED0C0B53EC1B2B51EC100B72
:101DE00001F04AFD53EC1A2B01F06EFC41EC1B0B89
:101DF0009FED550B53EC102B9DED0C0B51EC100B84
:101E000001F02EFB41EC1A0B9FED510B51EC1B0B1B
:101E100053EC102B01F024FB41EC1B0B9FED4E0B00
:101E200053EC102B9DED0C0B51EC100B01F018FB3B
:101E300053EC1B2B01F03CF841EC100B4848784464
:101E400000EBC40090ED001B51EC100B53EC112B78
:101E500001F02EF841EC1B0B384601F09AFACDE95F
:101E6000080153EC1B2B51EC1A0B01F021F841EC4B
:101E7000100B3C48784400EBC40090ED00CB51ECD3
:101E8000100B53EC1C2B01F013F89DED081B53ECC9
:101E9000112B01F00DF80690CDE906519DED080BD0
:101EA00053EC102B9DED060B51EC100B01F0E4FCF4
:101EB00053EC1C2B01F0E0FC53EC1A2B01F0DCFC82
:101EC00053EC1B2B01F000FC41EC100B9DED261B8D
:101ED00053EC102B8DED001B00959DED260B51EC66
:101EE000100B01F0BDFA9DED000B41EC1A0B53EC09
:101EF000102B9DED260B51EC100B01F0BDFC9DED60
:101F0000061B53EC112B2FE0000000604715F73F34
:101F1000FE822B654715F73F44DF5DF80BAE543E5C
:101F200000000000000040438E9803007AB60B00CA
:101F300042200000A02000007A1F000000000000E6
:101F40000000000000000840000000E009C7EE3F6C
:101F5000FD033ADC09C7EE3FF5015B14E02F3EBEFE
:101F6000061E0000C01D000001F07AFA53EC1A2B87
:101F700000F09EFF9DED060B41EC1A0B53EC102B6D
:101F80009DED000B51EC100B01F06AFACDE90C014C
:101F90009DED0C0B51EC1A0B53EC102B00F088FF4D
:101FA000CDE902010C46AA498C422FDB611A084395
:101FB00018D19DED0C0B53EC102B9DED020B51EC49
:101FC000100B01F059FC41EC1B0B9FEDA30B51ECE6
:101FD0001A0B53EC102B00F06BFF53EC1B2B01F092
:101FE0003DFB2DD20220FEF747F900F0E1FD10EE97
:101FF000901A18EE900A8DED020B8DED008B61F3B7
:102000001E0003909DED020BFFF7BEBB944A24F027
:102010000041914214D39349214408437FF4EFAC2B
:102020009DED0C0B53EC102B9DED020B51EC100BA6
:1020300001F022FC53EC1A2B01F010FB7FF6DFAC11
:1020400024F000408849894A002601EB2051824251
:102050002BDA481C4FF4801121FA00F02044844A06
:10206000C0F30A517A44A1F2FF3192ED000B814A8C
:102070008DED080BCA4020EA0202C0F3130040F4C1
:102080008010C1F1140120FA01F60992002CB8BFAA
:1020900076429DED080B53EC102B9DED0C0B51EC93
:1020A000100B01F0E9FBCDE90C019DED0C0B51EC9F
:1020B0001A0B53EC102B00F0FBFE9FED6F0B0890FA
:1020C000CDE9085153EC102B9DED080B51EC100B92
:1020D00001F0C6F941EC1B0B9FED690B53EC102B83
:1020E0009DED080B51EC100B01F0BAF99DED0C0BB6
:1020F00041EC1C0B53EC102B9DED080B51EC100B1D
:1021000001F0BAFB53EC1A2B01F0DEFA9FED5E1BD7
:1021100053EC112B01F0A4F953EC1C2B00F0C8FE7A
:1021200041EC1A0B51EC1B0B53EC1A2B00F0C0FEC8
:10213000CDE902019DED020B53EC1B2B51EC100B72
:1021400001F09AFB53EC1A2B01F0BEFA9DED020B45
:1021500041EC1A0B53EC102B51EC100B01F080F9F1
:10216000CDE908014A489DED080B0521784400F0AF
:10217000CFFB9DED081B51EC100B53EC112B01F024
:102180006FF99DED021B53EC112B01F09DFACDE987
:1021900006019DED020B53EC1A2B51EC100B01F0D4
:1021A0005FF953EC1A2B00F083FE9FED3B0B41ECE3
:1021B0001A0B53EC102B9DED060B51EC100B01F09C
:1021C0005BFB9DED060B41EC1B0B53EC102B9DEDC7
:1021D000020B51EC100B01F043F953EC1B2B00F0F8
:1021E00023FF53EC1A2B01F047FB9DED021B53EC30
:1021F000112B01F041FB53EC192B01F065FACDE9ED
:10220000020101EB065001150029C8BF039015DC3F
:102210009DED020B324651EC100B01F0BFFCFFF7B5
:10222000FDF9042808BF00F0D3FC32469DED020BF7
:1022300051EC100B01F0B2FCCDE902019DED020B57
:1022400051EC180B53EC102B01F00AF9FFF73ABBD5
:102250000000904000000000FE822B654715973C6F
:1022600000CC904000346F3F01FCFFFF0000E03FD6
:10227000781C0000FFFF0F0000000000432EE63F27
:10228000396CA80C615C20BEEF39FAFE422EE63FA5
:10229000181B0000000000000000000000000040CB
:1022A00010B52F499FED2C1B2DED020B84B0059826
:1022B00020F000408842DCBF00209DED040B32DDA1
:1022C0002849884209D1049840B94FF00100FDF730
:1022D000D3FF00F05DFC06B010BD05DB9DED040BE7
:1022E00000F042FC06B010BD68469DED040B00F006
:1022F0003BF810F0030011D0012818D09DED021B0F
:102300009DED000B02281AD000F04AFA51EC100B98
:1023100000F0C1FD06B041EC100B10BD9DED021B9D
:102320009DED000B012000F06FFB06B010BD9DED90
:10233000021B9DED000B00F033FA06B010BD01202A
:1023400000F062FB51EC100B00F0A5FD06B041EC73
:10235000100B10BD00000000000000000000000095
:10236000FB21E93F0000F07F2DE9F14F04462DED00
:10237000020B2DED088B8AB09FEDE70B80ED020B71
:10238000139EE74826F0004585420ADC9DED120BBE
:10239000002084ED000B0AB0BDEC088B03B0BDE853
:1023A000F08FE0489FEDE0AB9FEDE1BBA84247DD39
:1023B000E14F9FEDE39B9FEDE48B9DED120B53EC02
:1023C0001A2B51EC100B002E1CDD01F055FA41ECDC
:1023D000100BBD4208D053EC1B2B51EC100B01F03D
:1023E0004BFAC4E900010BE053EC192B51EC100B34
:1023F00001F042FA53EC182B01F03EFAC4E9000157
:102400000120C8E700F054FD41EC100BBD4208D09C
:1024100053EC1B2B51EC100B00F04AFDC4E90001FA
:102420000BE053EC192B51EC100B00F041FD53EC79
:10243000182B00F03DFDC4E900014FF0FF30AAE782
:10244000C348A84279DB9DED120B51EC100B00F054
:10245000CFFB41EC180B9FEDC00B53EC102B00F0A1
:10246000FFFF9FEDBF1B53EC112B00F021FD00F08F
:1024700033FF074600F08DFF41EC190B53EC1A2B8C
:1024800000F0EEFF53EC182B01F01EF941EC180B95
:1024900053EC1B2B51EC190B00F0E2FFDFF8C8A244
:1024A00041EC100B4FEA15580125FA4453EC102B60
:1024B00051EC180B01F0E0F9032DC4E900013DD007
:1024C000C1F30A5005EB4511A8EB00001139814218
:1024D00034DA0AEB051BB0EE48AA9BED000BF0EED8
:1024E00068AA53EC102B51EC190B00F0B9FF41EC2A
:1024F0001B0B51EC1A0B53EC1B2B01F0BDF941ECFB
:10250000180B51EC1A0B53EC182B01F0B5F953ECE6
:102510001B2B01F0B1F99BED020B41EC1A0B53ECB4
:10252000102B51EC190B00F09BFF53EC1A2B01F010
:10253000A3F941EC100B6D1CB8E70EE0002EA8BF0C
:102540003846BFF628AF94ED000B51EC100B00F0AD
:10255000A2FCC4E9000178421DE7C6F3130040F471
:10256000801EC6F30A50A0F2F530471100F01F0597
:10257000C5F12000DDF848B00890002006900790D3
:102580000520EC467949002D07EB0002794408BF8D
:1025900051F8221009D051F8223001EB8201AB40F2
:1025A0004A68089922FA01F11943A1FB0E26A1FB02
:1025B0000B131A449A4234BF0123002303EB06088D
:1025C0000CEB8003D3E901A60E448E4234BF0121F7
:1025D000002192448A4411B1924502D903E0924508
:1025E00001D2012100E00021C3E901A641444CF8D9
:1025F0002010011EA0F10100C4DC029800F100507F
:10260000850F0298DDE903678000DDF8148000F093
:10261000C0FE41EC1A0B304600F0D2FE9FED541B79
:1026200053EC112B00F01CFF41EC1B0B384600F063
:10263000C7FE9FED511B53EC112B00F011FF41EC35
:10264000180B404600F0BCFE9FED4D1B53EC112BC8
:1026500000F006FF41EC190B51EC180B53EC192B51
:1026600000F026FC53EC1B2B00F022FC53EC1A2B41
:1026700000F01EFCCDE90801002008909DED080B3C
:1026800053EC1A2B51EC100B01F0F6F853EC1B2B0A
:1026900001F0F2F853EC182B01F0EEF853EC192B83
:1026A00001F012F89FED381B53EC112B00F0D8FE0F
:1026B0009FED370B41EC180B53EC102B9DED080BE5
:1026C00051EC100B00F0CCFE53EC182B00F0F0FB9B
:1026D0009FED310B41EC180B53EC102B9DED080BCB
:1026E00051EC100B00F0BCFE53EC182B00F0E0FB9B
:1026F00041EC100B139810F0004F06D06D4251ECD6
:10270000100B00F0C8FB41EC100B284684ED000BC9
:1027100041E6000000000000000000000000000092
:10272000FB21E93F7CD9024000004054FB21F93FE6
:102730003163621A61B4D03DFB21F93F0000000013
:102740000000601A61B4D03D7370032E8A19A33B58
:10275000FB2139410000000083C8C96D305FE43FB0
:10276000000000000000E03F3A1800008817000059
:10277000000000000000103E000000000000103CBF
:10278000000000000000103A182D4454FB21F93DD0
:102790003326A611460B113C00000054FB21F93DE5
:1027A00010B52DED040B2DED088B82B0B0EE419AE3
:1027B000F0EE619A0B9820F000449FED4BABB4F122
:1027C000795F11DA9DED0A0B51EC100B00F084FDDE
:1027D000002801BFB0EE4A0AF0EE6A0A02B0BDEC72
:1027E000088B04BF04B010BD9DED0A0B53EC102BF9
:1027F00051EC100B00F034FE41EC180B3C48062164
:10280000B0EE480AF0EE680A784400F081F853EC24
:10281000182B51EC100B00F023FE9DED0A0B41EC40
:102820001B0B53EC192B51EC100B00F019FE41EC73
:10283000190B53EC1B2B51EC180B00F011FE53EC51
:10284000192B01F019F89FED2C0B41EC190B53ECEF
:10285000102B51EC180B00F003FE41EC100B284834
:10286000844210DA53EC192B51EC100B01F004F8F0
:1028700053EC1A2B00F028FF41EC100B02B0BDEC1A
:10288000088B04B010BD1F48A042BCBF9FED1E1BAB
:102890008DED001B06DBA4F50010019000200090D8
:1028A0009DED001B51EC100B53EC112B00F0E4FFDD
:1028B0009DED000B41EC180B53EC102B51EC1A0B57
:1028C00000F0DAFF41EC1A0B53EC192B51EC180B0A
:1028D00000F0D2FF53EC1A2B00F0F6FE41EC100B87
:1028E000CCE7000000000000000000000000F03F06
:1028F000A414000000000000000000000000E03F01
:102900003333D33F0000E93F000000000000D23F16
:1029100070B504462DED028B4D1E00EBC500B0EEE8
:10292000408AF0EE608A90ED000B35F0060017D07B
:1029300053EC182B51EC100B00F092FD41EC100BF6
:102940006D1E04EBC50090ED001B51EC100B53EC19
:10295000112B00F0ADFA41EC100B35F00600E7D179
:10296000022D36D0042D1CD0062D1CBFBDEC028BD1
:1029700070BD53EC182B51EC100B00F071FD94ED71
:102980000A1B53EC112B00F093FA53EC182B00F0B8
:1029900067FD94ED081B53EC112B00F089FA41EC14
:1029A000100B53EC182B51EC100B00F059FD94ED6B
:1029B000061B53EC112B00F07BFA53EC182B00F0A4
:1029C0004FFD94ED040B53EC102B00F071FA41EC29
:1029D000100B53EC182B51EC100B00F041FD94ED53
:1029E000021B53EC112B00F063FA53EC182B00F090
:1029F00037FD94ED001B53EC112B00F059FABDECA0
:102A0000028B41EC100B70BD31B504462DED040B6B
:102A10002DED0A8BB0EE41BAF0EE61BA0B989DED48
:102A20000A0B20F00040B0F1795F0DDA51EC100B89
:102A3000FEF7F4FD042808BF00F0CAF89DED0A0B6C
:102A4000BDEC0A8B05B030BD53EC102B51EC100BD4
:102A500000F006FD41EC180B9DED0A0B53EC182B12
:102A600051EC100B00F0FCFC41EC190B2C48B0EEC3
:102A7000480AF0EE680A05217844FFF749FF9FED08
:102A80002ACBB0EE40AAF0EE60AA9CB353EC1C2B0C
:102A900051EC190B00F0E4FC41EC1C0B53EC1A2B2D
:102AA00051EC190B00F0DCFC9FED210B41EC190BF4
:102AB00053EC102B51EC1B0B00F0D2FC53EC192BF8
:102AC00000F0DAFE53EC182B00F0CAFC53EC1B2B81
:102AD00000F0D2FE53EC1C2B00F0CEFE9DED0A1B45
:102AE00053EC112B00F0F0FDBDEC0A8B05B041EC6E
:102AF000100B30BDFFE753EC1A2B51EC180B00F014
:102B0000AFFC53EC1C2B00F0D3F953EC192B00F065
:102B1000A7FC9DED0A1B53EC112B00F0C9F9E3E76C
:102B20003413000000000000495555555555C5BFE8
:102B3000000000000000E03F9FED070B10B553ECD4
:102B4000102B9FED070B51EC100B00F06DFA41ECD0
:102B5000100B10BD0000000000000000000000008D
:102B6000000000000000F03F10B553EC102B51ECBA
:102B7000100B00F09DF941EC100B10BD10B553EC9B
:102B8000112B51EC100B00F093F941EC100B10BD20
:102B90009FED050B10B553EC102B51EC100B00F012
:102BA00043FA41EC100B10BD0000000000000000D3
:102BB0009FED050B10B553EC102B51EC100B00F0F2
:102BC0004FFC41EC100B10BD000000000000007035
:102BD0009FED050B10B553EC102B51EC100B00F0D2
:102BE0003FFC41EC100B10BD000000000000001085
:102BF00082B0CDE9000121F0004001909DED000B75
:102C000002B051EC100B704710B52DED108BB0EEEB
:102C1000408A002447E09FED260A28EE000A10EEC5
:102C2000101A084600F012FF41EC1C0B9FED210B1F
:102C300053EC102B00F0F8F941EC1A0B600000F097
:102C4000A8FB41EC1F0B9FED1D0B53EC102B00F06C
:102C500007FC41EC1E0B9FED1B0B53EC102B00F0FF
:102C6000E3F941EC1D0BB0EE4D0AF0EE6D0AFFF7F3
:102C700017FBB0EE40CAF0EE60CA9FED140B53ECA8
:102C8000102B51EC1C0B00F013F941EC1B0B53EC17
:102C90001A2B00F0E5FB41EC190B00F04DFB0D4940
:102CA00021F81400641C642CB5DBBDEC108B10BD46
:102CB00000008045CDCCCCCCCCCC20404AD8124DA5
:102CC000FB21094000000000000059400000000006
:102CD0000000F03F3800002010B52DED0A8BB0EE5B
:102CE000408A002423E09FED140A28EE000A10EE2B
:102CF000101A084600F0AAFE41EC1C0B9FED0F0BCA
:102D000053EC102B00F090F941EC1A0B204600F028
:102D100040FB41EC1B0B53EC1A2B00F0A1FB41ECE8
:102D2000190B00F009FB074921F81400641C642CFE
:102D3000D9DBBDEC0A8B10BD00F07F458FC2F528B2
:102D40005CFF7840C801002010B52DED068BB0EE79
:102D5000408A002004E00021124A22F81010401C92
:102D60003228F8DB322418E09FED0F0A28EE000A23
:102D700010EE101A084600F069FE41EC1A0B9FEDA8
:102D80000B0B53EC102B00F04FF941EC190B00F03A
:102D9000D3FA044921F81400641C642CE4DBBDEC74
:102DA000068B10BD5803002000F07F4548E17A14DF
:102DB000AE47114000200FE0DFED090A60EE200A67
:102DC000B2EE001AC0EE811AFCEEE10A10EE901A83
:102DD000044A22F81010401C0228EDDB7047000066
:102DE00000F07F45100000201CB501210846FDF7CA
:102DF00043FF01214807FDF74FFF302000900320DB
:102E00008DF8040000208DF8070069460548FDF79D
:102E100059FEFEF765FAFEF779FAFEF7E9FA00BF08
:102E2000FEE700000000024000B52DED048B83B0EA
:102E300041EC190B00F054FC41EC180B18EE100A91
:102E400018EE901A8DED008B002818BF0120084362
:102E500020F00040C0F17F6000F1E040C00F14D0CE
:102E600019EE101A19EE900A8DED009B002918BF7B
:102E70000121084320F00040C0F17F6000F1E040F4
:102E8000C00F04BF0120FDF7F7F951EC180B03B098
:102E9000BDEC048B00BD81F00041704780F0004024
:102EA000704721F00041704720F00040704700005B
:102EB00010B591EA030F48BF83F0004300F1E484AA
:102EC000841A71EB030C05D2121943EB0C03001B9F
:102ED00061EB0C01DFF824E14FEA1154A4EB135C21
:102EE0001EEA430F18BF9EEA445F73D023EA0E0325
:102EF000DCF1200E21EA045143F4801332D322FA8C
:102F00000CFE10EB0E0023FA0CFE41EB0E01CCF18F
:102F1000200E03FA0EFE10EB0E0051F10001B1F588
:102F2000801FCCF1200E32D201EB045112FA0EF2C6
:102F3000BDE8104058BF7047401C38BF5FEA4202EE
:102F400018BF7047002814BF20F0010041F10001B4
:102F50004FEA410313F5001F38BF7047A1F1C0418C
:102F600000F076BB012A43EB0302ACF1200CDCF14C
:102F70001F0E32BF4FF0000E23FA0CF310EB0300CC
:102F800041EB0451B4EB115FD0D0A1EB045101F53A
:102F9000801149085FEA300001EB04510ED350F173
:102FA000000038BF12FA0EFE08D1BDE81040C9E794
:102FB000401C38BF5FEA4202CAD1C3E7BDE81040F7
:102FC0004FEA410313F5001F38BF7047A1F1C0411C
:102FD00000F03EBB9EEA445F08D011EA5E0FBDE8F8
:102FE000104004BF01F0004100207047BDE81040D0
:102FF00070B500F0DFFA00BF64FBBE3E0000E0FFEA
:1030000002494FF0000000F097BD00BF0000F87FBC
:10301000491058BFC1F140415B1058BFC3F1404354
:103020008B42EFF3008070472DE9C04130B4DFF8E8
:10303000A0C23CEA111418BF3CEA131400F0EC8063
:1030400081EA03051CEA111444EAD57418BF1CEA8E
:10305000131500F0C780A4EB05044FF0004545EAC6
:10306000C12145EAC32341EA505143EA525304F1D6
:103070007F74994204F500344FEAC0204FEAC2221F
:1030800008BF904200F09C804FEA13650FF2401693
:10309000765D4FEA134506FB05F7C7F1807706FB1F
:1030A00007F74FEAD737A7FB03687642C8F58038A1
:1030B000A7FB06CE38BFA8F1010807FB08E64FF0D2
:1030C000000EA6FB028CE6FB03CEDCF1000CCEF179
:1030D000004E38BFAEF1010EA6FB0C584FF00007B2
:1030E0004FF00005E6FB0E87A1FB08C6A0FB07CE4C
:1030F00016EB0E0645F10005E1FB076515F1E04E04
:103100007EBFA4F580345FEA46066D4116F1800764
:1031100045F100054FEA17274FEA066647EA0567BB
:10312000A6F1DE46B6F1805F4FEA15251FD9384675
:1031300024F0010C05EBC471BCF1FE6F01EB0C1126
:1031400002D8F0BCBDE8008124425CBF01F5801EBE
:103150009EEAC47F02D4F0BCBDE80081244238D48A
:10316000F0BCA1F1C041BDE8004100F071BA4FEAE6
:10317000D22242EA43524FEAD323A7FB02864FEA08
:10318000D02040EA415007FB03661EEA0E0F4FEACB
:10319000D12105FB026658BFA6EB0056B6EB0056E0
:1031A0004FEA520E4EEAC37E18EB0E0E56EB530E4C
:1031B000BDD518EB02085E417F1C55F10005B6E74E
:1031C0004FF480154FF000074FF000064FF0000855
:1031D000ADE7F0BC4FF0000001F1C04101F000414B
:1031E000BDE8008111EA0C1F0CEA131500D00CE0B9
:1031F00013EA0C1F00F025804FF00000F0BC81EABC
:10320000030101F00041BDE80081F0BCBDE80041D0
:1032100081EA030100F01CBAF0BCBDE8004170B5C2
:1032200000F0C8F9097EFC3E00F007B881EA03010E
:103230004FF0000001F00041704781EA030100F007
:1032400007BAF0BCBDE800414FF0000021497047CB
:10325000FFFDFBF9F7F5F4F2F0EEEDEBE9E8E6E45B
:10326000E3E1E0DEDDDBDAD8D7D5D4D3D1D0CFCDE2
:10327000CCCBCAC8C7C6C5C4C2C1C0BFBEBDBCBB1B
:10328000BAB9B8B7B6B5B4B3B2B1B0AFAEADACAB16
:10329000AAA9A8A8A7A6A5A4A3A3A2A1A09F9F9EF0
:1032A0009D9C9C9B9A9999989797969595949393A2
:1032B000929191908F8F8E8E8D8C8C8B8B8A898939
:1032C00088888787868585848483838282818180BC
:1032D0000000FF070000F87F4FEA41034FEA535315
:1032E000A3F58063D3F11E03C8BFD3F1210C0CDD1D
:1032F0004FF0004242EAC12242EA505232FA03FC45
:103300008CEAE17CACEBE1707047102BC4BF00206D
:10331000704703F5787CBCF1FF3F04D06FF00042AA
:1033200082EA2100704770B500F044F94992248088
:1033300000207047F2E700004FEA1153A3F58063C5
:10334000D3F11E03A8BFD3F1200C08DB4FF00042DD
:1033500042EAC12252EA505232FA03F0704709425F
:103360000BD4102BC4BF0020704703F5787CBCF150
:10337000FF3F05D04FF0FF3070474FF0000070471F
:1033800070B500F017F900BF499224800020704703
:10339000F0E710F0004248BF4042B0FA80F310FA64
:1033A00003F10AD0C3F11D0303F580634FEA4150D6
:1033B00002EB035202EBD12170474FF0000070473F
:1033C000B0FA80F310FA03F10AD0C3F11D0303F53C
:1033D00080634FEA41504FEA035202EBD12170471C
:1033E0004FF000007047000051EA030C17D41CF5A1
:1033F000801F58BFBCF5801F00F10680994218BF9E
:10340000704708BF9042704707D711F5801F58BF1B
:1034100013F5801F19D499427047894270471CF5F3
:10342000801F08D5BCF5801FF7D58B4218BF7047A9
:1034300008BF824270474FF4001C1CEB410F38BF9D
:103440001CEB430F01D28B42704770B500F0B2F80D
:10345000922449004FF000514FF08053FFF7D8BD40
:10346000DFF848C170B51CEA111E1EBF1CEA131517
:103470009EEA0C0F95EA0C0F00F06F8081EA0304BE
:1034800023EA4C134EEAD47E21EA4C1141F4801118
:1034900043F48013AE44A1FB024CA0FB0365AEF1E4
:1034A0007F7E361955EB0C05A1FB034C4CF1000354
:1034B000A0FB021C16EB0C06654153F10003094208
:1034C00018BF46F0010613F4007F0BD14FEA033119
:1034D0004FEA0530340341EA155140EA16506FF0C7
:1034E00003020AE04FEAC3214FEAC520F40241EA91
:1034F000555140EA56506FF0020202EB2E4201EBAA
:10350000025585EACE710AD05FEA440C18BF24F058
:10351000004450F1000041F1000120EAD47040F273
:10352000FE7C624500D270BDA84214BF4FF08044BB
:103530004FF04044002E08BF0024BEF1806FA8BFAA
:10354000A1F1C041BDE8704080F282804FF00000E0
:1035500001F1C04101F0004170479EEA0C0F0CEAF6
:10356000131518BF95EA0C0F06D04FF0000081EA42
:10357000030E0EF0004170BD00F01CF88900013E02
:1035800000F007B800F009B84FEA430C5FEA5C5C52
:1035900008D081EA030100F05BB84FEA410C5FEA12
:1035A0005C5CF6D14FF00000014970470000FF0756
:1035B0000000F87F0EF1020E2EF0030E5EF8046B91
:1035C000364205D4012A43EB030515F5001F12D836
:1035D000012841EB010C1CF5001F0CD80ED14FEA5D
:1035E000D17C15F5001F0CEB4C0C0CF1020C08BF44
:1035F0004CEBD37C04E04FF0080C01E04FEAD37CA5
:103600000CEB4C0526FA05F606F00706B6F1040C9D
:1036100006D20EEB860CBDE870404CF0010C604702
:10362000DFE80CF0090B02024FF000414FF0000000
:10363000A1F5002170BD19461046012851EB010487
:1036400018BFD4F5001484BF002001F0004170BD04
:103650000808A0F500114FEA3101704753EA010C48
:1036600017D41CF5801F58BFBCF5801F00F10680E1
:103670008B4218BF704708BF8242704707D713F5C7
:10368000801F58BF11F5801F19D48B4270479B4291
:1036900070471CF5801F08D5BCF5801FF7D59942EF
:1036A00018BF704708BF904270474FF4001C1CEBD6
:1036B000430F38BF1CEB410F01D2994270470FB442
:1036C0000CBC03BCFFF7C1BE91EA030F10B581F03B
:1036D00000413FF5F5AB83F0004300F0D5B80000A2
:1036E0002DE9F04101F5801CBCF5001FC0F2A98056
:1036F0004FEA115C21EA0C510CF1FD0C41F48011F0
:103700005FEA5C0C0CF5C07C01D34000494130A459
:10371000890241EA905187028E0E0A0CA45D04FBD7
:1037200004F602FB06F6C6F14046A4FB0662F60D5F
:1037300046EA422606FB06F4A4FB01235242C3F1EB
:10374000404338BF5B1EA6FB02420024E6FB032475
:10375000D20B42EA4446A6FB0623A1FB02E2A3FBEE
:1037600007E4E3FB61426442C2F1404E38BFAEF170
:10377000010EA6FB04234FF00002E6FB0E32A2FB73
:1037800003463400E2FB6264A1FB06E6A4FB07E803
:10379000E4FB61687642C8F1405838BFA8F10108DF
:1037A000A2FB06E4A3FB08E5E2FB6854A1FB05E6E7
:1037B000A7FB04E8E1FB648618F1200556F100063A
:1037C000A809A8F11B08B10908F03F08B8F10A0FD1
:1037D00040EA86601CD901EB0C51BDE8F08100BFC6
:1037E000FCF5EEE8E2DDD8D3CFCBC7C3C0BDB9B698
:1037F000B4B1AEACA9A7A5A3A19F9D9B9A9896959D
:103800009392908F8D8C8B89888786858483828123
:10381000A0FB006800FB01F208EB4208B8EB872828
:1038200007D5341858EB0104D5D5401C51F10001DF
:10383000D1E7341A78EB0104CDD4401E71F10001B8
:10384000C9E75FEA4C0C5FEA9C5C0DD105D34FF0F1
:10385000000001F00041BDE8F081BDE8F04170B525
:10386000FFF7A8FE6DDBFFBEBDE8F0414FF00000A2
:10387000004970470000F87F10B591EA030F48BF78
:1038800083F000433FF51CAB841A71EB030C07D2A5
:1038900012198CF0004C43EB0C03001B61EB0C0184
:1038A000DFF8A4E14FEA1154A4EB135C1EEA430FC6
:1038B00018BF9EEA445F00F0B08023EA6E035242D4
:1038C00021EA0451C3EB6E0338BF5B1EDCF1200E0E
:1038D00025D322FA0CFE10EB0E0043FA0CFE41EB4E
:1038E0000E01CCF1200E03FA0EFE10EB0E0051F18A
:1038F0000001CCF1200E29D412FA0EF201EB045192
:10390000BDE8104058BF7047401C1CBFB2F1004FCB
:10391000704700280CBF491C20F00100704712EBD3
:10392000020E43EB030218BF4FF0010E4EEA4202B3
:10393000ACF1200CDCF11E0E54D943FA0CFE10EB56
:103940000E0051F1FF31CCF11E0ED5D50EF1010E56
:1039500012FA0EFE404141EB010101EB445C5FEACB
:103960005C5C10D910EBDE7001EB045138BFBEF186
:10397000004FBDE8104018BF704700280CBF491C1D
:1039800020F00100704730D24FEAD42C11F500111D
:1039900024F400641BD0B1FA81F20B3AA41AA41EDD
:1039A000D2F12003914030FA03F31943904001EB28
:1039B000CC71002C01EB0451BDE81040A8BF70474A
:1039C00001F1C0414FF0000001F000417047B0FA32
:1039D00080F310FA03F100D110BDE41A173C48053A
:1039E000C90AE4E701EB045110BD491001EB045191
:1039F000BDE810404FEA300002E04FF00001704790
:103A00004A0008BF0042F8D0B2F5001F28BF704737
:103A100001F000414FF0000070479EEA445F07D07C
:103A200011EA5E0FBDE8104004BF0021002070477E
:103A3000BDE8104070B5FFF7BDFD00BF40DFF63EAA
:103A400083F00041104670470000E0FF43004FEA5A
:103A5000D30C4FEA3C0C43401FBF40070CF16051B0
:103A600013F0FE4F70471CF0006F03D100200CF0E4
:103A7000004170470CF0004343EA507010B540EA33
:103A8000CC0000F00EF800BF000000924FEA0001E9
:103A9000FFF7DEBD4FF000414FF00000A1F500211F
:103AA00070470EF1020E2EF0030E5EF8044B244216
:103AB00004D44FEA4102B2F17F4F11D84FEA4003DC
:103AC000B3F17F4F0CD80ED14FEAD07CB2F17F4FCB
:103AD0000CEB4C0C0CF1020C08BF4CEBD17C04E05D
:103AE0004FF0080C01E04FEAD17C0CEB4C0324FAB8
:103AF00003F404F00704B4F1040C06D20EEB840CBA
:103B0000BDE810404CF0010C6047DFE80CF00708FE
:103B100002024FF00040A0F5800010BD08464200B0
:103B200018BFD2F1807288BF00F0004010BD4FF086
:103B30004070E1EE100A70470CF00F03092B08BF2C
:103B4000082000F059800A2B0BD0082B18BF7047B3
:103B500008BF1CF0400F0AD04FF000004FF00001EA
:103B600070471CF0400F18BF4FF0004070471CF02A
:103B7000100F08D020F0704300F07F4242EAD301DA
:103B80004FEA4370704700F0604021F07F4242EA04
:103B9000000201F07F4040EA727070474FF0FF0C66
:103BA0004CF4E06C1CEA11531CBF9CEA030C9445D6
:103BB000C2BFDA4201EB02517047002B0DD0BCF1BD
:103BC000000F0FD0002A01F00041A4BF41F0E041F6
:103BD00041F07F614FF00000704701F000414FF06D
:103BE0000000704750EA01334FF09B0C18BF4CF0B7
:103BF000806C7FF405AA70471CF4801F11D01CF460
:103C0000E02F03D06FEACC31490070474FF04050AD
:103C1000EFF3008222F0704242EA000282F3008851
:103C200070474FF000007047000000000000F03FB8
:103C3000000000000000F83F00000000000000004D
:103C40000000004003B8E23F000000000000000058
:103C500006D0CF43EBFD4C3E033333333333E33FE6
:103C6000FFAB6FDBB66DDB3F4D268F515555D53F12
:103C700001411DA96074D13F65DBC9934A86CD3FE0
:103C8000EF4E454A287ECA3F3E5555555555C53FCE
:103C900093BDBE166CC166BF2CDE25AF6A56113FC0
:103CA000F16BD2C541BDBBBED0A4BE726937663EC2
:103CB0004C5555555555A53F7751C1166CC156BF4A
:103CC0009015CB19A001FA3EAD529C804F7E92BE5A
:103CD000C4B1B4BD9EEE213ED43888BEE9FAA8BD79
:103CE000000000000000000000004054FB21F93FEC
:103CF0003163621A61B4D03D0000601A61B4D03DF6
:103D00007370032E8A19A33B0000002E8A19A33B6F
:103D1000C14920259A837B39000000000000000083
:103D20006E83F9A22915444ED15727FCC0DD34F526
:103D3000999562DB4190433CAB6351FE61C5BBDEAC
:103D40003A6E24B7E0D24D42EA2E49061C92D109C0
:103D50001CEB1DFE3EA729B1F53582E88444BB2E3D
:103D600026709CE9417E5FB439D69139F43953838A
:103D70008B5F849C3B28F9BDFF97F81F0F9805DEE9
:103D80008B112FEF1F6D0A5ACF7E366DB709CB27E7
:103D9000663F464F2DEA5F9EC7BA27757BF1E5EB7C
:103DA000F739073DEA92528AB15FFB6B085D8D1FC0
:103DB000A6F810111111813FD561C119A0012ABFC8
:103DC0007DFEB157E31DC73EEB9C2B8AE6E55ABE4C
:103DD0007CD5CF5A3AD9E53DF83D000800000020D7
:103DE00038000000C4010008303E00083800002000
:103DF000500B0000E001000800000000000000007F
:103E000000000000000000000000000030303030F2
:103E10003030000000000000000000000000000042
:103E20000000000001020304010203040607080960
:0400000508000229C4
:00000001FF
